:100000000C9446000C9465000C9465000C946500FB
:100010000C9465000C9465000C9465000C946500CC
:100020000C9465000C9465000C9465000C946500BC
:100030000C9465000C9410010C9465000C94650000
:100040000C9465000C9465000C9465000C9465009C
:100050000C9465000C9465000C9465000C9465008C
:100060000C9465000C9465000C9465000C9465007C
:100070000C9465000C9465000C9465000C9465006C
:100080000C9465000C9465000C94650011241FBE4F
:10009000CFEFD0E4DEBFCDBF11E0A0E0B1E0E2E7FA
:1000A000F3E000E00BBF02C007900D92A833B10748
:1000B000D9F711E0A8E3B1E001C01D92AE33B1075A
:1000C000E1F70E9470010C94B7010C940000CF93EB
:1000D000C82F8A3019F48DE00E9467009091C0000B
:1000E00095FFFCCFC093C60080E090E0CF910895CB
:1000F00040E050E00CC000002F5F3F4F02C020E006
:1001000030E0273063E03607B4F34F5F5F4F4817A6
:100110005907ACF308955E9888B95F9A00005F981C
:1001200082E090E00E947800089581E00E948B00B8
:100130000895813120F481580E948B0008958155E3
:100140000E948B00089584E690E00E94780088E386
:100150000E948B0086E00E948B008FE00E948B0043
:1001600081E00E948B008AE090E00E947800089570
:100170005E9A88B95F9A00005F9881E090E00E94E3
:1001800078000895EF92FF920F931F93CF93DF9320
:10019000182FEB010E9495000EC001E0010F812F86
:1001A0000E9499007E018FEFE81AF80A88810E9468
:1001B000B800102FE70188818111EFCFDF91CF9137
:1001C0001F910F91FF90EF9008958BE08093810035
:1001D0008DE790E0909389008093880082E080937F
:1001E0006F00109285001092840080910001909120
:1001F0000101A0910201B091030180933901909314
:100200003A01A0933B01B0933C018FB780688FBF48
:10021000089510928100089581E080933D01089532
:100220001F920F920FB60F9211240BB60F922F93BD
:100230003F934F935F936F937F938F939F93AF936E
:10024000BF93EF93FF938091390190913A01A09170
:100250003B01B0913C010197A109B109809339019B
:1002600090933A01A0933B01B0933C01892B8A2BD8
:100270008B2B91F40E940C0180910001909101015F
:10028000A0910201B09103018093390190933A014A
:10029000A0933B01B0933C01FF91EF91BF91AF91CF
:1002A0009F918F917F916F915F914F913F912F918E
:1002B0000F900BBE0F900FBE0F901F90189560937C
:1002C00000017093010180930201909303016093F8
:1002D000390170933A0180933B0190933C0108955A
:1002E000CF93DF93CDB7DEB7A6970FB6F894DEBFF6
:1002F0000FBECDBF8FEF87B918B88AB91BB864EFAE
:1003000071E080E090E00E945F010E94E5000E94A1
:10031000A30086E2E2E1F1E0DE01119601900D9288
:100320008A95E1F7BE016F5F7F4F81E00E94C200B6
:1003300080913D018823E1F310923D01498120E045
:100340000FC0E1E0F0E0EC0FFD1FE80FF91F318175
:10035000E1E0F0E0EC0FFD1FE80FF91F30832F5FA5
:10036000822F90E08532910564F34EA3DBCFF894A1
:02037000FFCFBD
:100372000100000000000002000000006700000011
:1003820000004353313242206973204C6567656E29
:1003920064202E2E2E207761697420666F72206988
:0803A20074204441525921204E
:00000001FF
